{
  "_format": "hh-sol-artifact-1",
  "contractName": "RestaurantNFT",
  "sourceName": "contracts/RestaurantContract.sol",
  "abi": [
    {
      "inputs": [],
      "stateMutability": "nonpayable",
      "type": "constructor"
    },
    {
      "anonymous": false,
      "inputs": [
        {
          "indexed": true,
          "internalType": "address",
          "name": "owner",
          "type": "address"
        },
        {
          "indexed": true,
          "internalType": "address",
          "name": "approved",
          "type": "address"
        },
        {
          "indexed": true,
          "internalType": "uint256",
          "name": "tokenId",
          "type": "uint256"
        }
      ],
      "name": "Approval",
      "type": "event"
    },
    {
      "anonymous": false,
      "inputs": [
        {
          "indexed": true,
          "internalType": "address",
          "name": "owner",
          "type": "address"
        },
        {
          "indexed": true,
          "internalType": "address",
          "name": "operator",
          "type": "address"
        },
        {
          "indexed": false,
          "internalType": "bool",
          "name": "approved",
          "type": "bool"
        }
      ],
      "name": "ApprovalForAll",
      "type": "event"
    },
    {
      "anonymous": false,
      "inputs": [
        {
          "indexed": true,
          "internalType": "address",
          "name": "previousOwner",
          "type": "address"
        },
        {
          "indexed": true,
          "internalType": "address",
          "name": "newOwner",
          "type": "address"
        }
      ],
      "name": "OwnershipTransferred",
      "type": "event"
    },
    {
      "anonymous": false,
      "inputs": [
        {
          "indexed": true,
          "internalType": "address",
          "name": "from",
          "type": "address"
        },
        {
          "indexed": true,
          "internalType": "address",
          "name": "to",
          "type": "address"
        },
        {
          "indexed": true,
          "internalType": "uint256",
          "name": "tokenId",
          "type": "uint256"
        }
      ],
      "name": "Transfer",
      "type": "event"
    },
    {
      "inputs": [
        {
          "internalType": "address",
          "name": "to",
          "type": "address"
        },
        {
          "internalType": "uint256",
          "name": "tokenId",
          "type": "uint256"
        }
      ],
      "name": "approve",
      "outputs": [],
      "stateMutability": "nonpayable",
      "type": "function"
    },
    {
      "inputs": [
        {
          "internalType": "address",
          "name": "owner",
          "type": "address"
        }
      ],
      "name": "balanceOf",
      "outputs": [
        {
          "internalType": "uint256",
          "name": "",
          "type": "uint256"
        }
      ],
      "stateMutability": "view",
      "type": "function"
    },
    {
      "inputs": [
        {
          "internalType": "uint256",
          "name": "tokenId",
          "type": "uint256"
        }
      ],
      "name": "buyCoupon",
      "outputs": [],
      "stateMutability": "payable",
      "type": "function"
    },
    {
      "inputs": [
        {
          "internalType": "uint256",
          "name": "tokenId",
          "type": "uint256"
        }
      ],
      "name": "getApproved",
      "outputs": [
        {
          "internalType": "address",
          "name": "",
          "type": "address"
        }
      ],
      "stateMutability": "view",
      "type": "function"
    },
    {
      "inputs": [
        {
          "internalType": "uint256",
          "name": "tokenId",
          "type": "uint256"
        }
      ],
      "name": "getCoupons",
      "outputs": [
        {
          "components": [
            {
              "internalType": "uint256",
              "name": "tokenId",
              "type": "uint256"
            },
            {
              "internalType": "string",
              "name": "name",
              "type": "string"
            },
            {
              "internalType": "string",
              "name": "description",
              "type": "string"
            },
            {
              "internalType": "address payable",
              "name": "seller",
              "type": "address"
            },
            {
              "internalType": "address payable",
              "name": "owner",
              "type": "address"
            },
            {
              "internalType": "uint256",
              "name": "price",
              "type": "uint256"
            },
            {
              "internalType": "bool",
              "name": "sold",
              "type": "bool"
            }
          ],
          "internalType": "struct RestaurantNFT.Restaurant",
          "name": "",
          "type": "tuple"
        }
      ],
      "stateMutability": "view",
      "type": "function"
    },
    {
      "inputs": [],
      "name": "getCouponsLength",
      "outputs": [
        {
          "internalType": "uint256",
          "name": "",
          "type": "uint256"
        }
      ],
      "stateMutability": "view",
      "type": "function"
    },
    {
      "inputs": [],
      "name": "getOwners",
      "outputs": [
        {
          "internalType": "uint256",
          "name": "",
          "type": "uint256"
        }
      ],
      "stateMutability": "view",
      "type": "function"
    },
    {
      "inputs": [
        {
          "internalType": "address",
          "name": "owner",
          "type": "address"
        },
        {
          "internalType": "address",
          "name": "operator",
          "type": "address"
        }
      ],
      "name": "isApprovedForAll",
      "outputs": [
        {
          "internalType": "bool",
          "name": "",
          "type": "bool"
        }
      ],
      "stateMutability": "view",
      "type": "function"
    },
    {
      "inputs": [],
      "name": "name",
      "outputs": [
        {
          "internalType": "string",
          "name": "",
          "type": "string"
        }
      ],
      "stateMutability": "view",
      "type": "function"
    },
    {
      "inputs": [],
      "name": "owner",
      "outputs": [
        {
          "internalType": "address",
          "name": "",
          "type": "address"
        }
      ],
      "stateMutability": "view",
      "type": "function"
    },
    {
      "inputs": [
        {
          "internalType": "uint256",
          "name": "tokenId",
          "type": "uint256"
        }
      ],
      "name": "ownerOf",
      "outputs": [
        {
          "internalType": "address",
          "name": "",
          "type": "address"
        }
      ],
      "stateMutability": "view",
      "type": "function"
    },
    {
      "inputs": [],
      "name": "renounceOwnership",
      "outputs": [],
      "stateMutability": "nonpayable",
      "type": "function"
    },
    {
      "inputs": [
        {
          "internalType": "string",
          "name": "uri",
          "type": "string"
        },
        {
          "internalType": "string",
          "name": "_name",
          "type": "string"
        },
        {
          "internalType": "string",
          "name": "_description",
          "type": "string"
        },
        {
          "internalType": "uint256",
          "name": "price",
          "type": "uint256"
        }
      ],
      "name": "safeMint",
      "outputs": [
        {
          "internalType": "uint256",
          "name": "",
          "type": "uint256"
        }
      ],
      "stateMutability": "payable",
      "type": "function"
    },
    {
      "inputs": [
        {
          "internalType": "address",
          "name": "from",
          "type": "address"
        },
        {
          "internalType": "address",
          "name": "to",
          "type": "address"
        },
        {
          "internalType": "uint256",
          "name": "tokenId",
          "type": "uint256"
        }
      ],
      "name": "safeTransferFrom",
      "outputs": [],
      "stateMutability": "nonpayable",
      "type": "function"
    },
    {
      "inputs": [
        {
          "internalType": "address",
          "name": "from",
          "type": "address"
        },
        {
          "internalType": "address",
          "name": "to",
          "type": "address"
        },
        {
          "internalType": "uint256",
          "name": "tokenId",
          "type": "uint256"
        },
        {
          "internalType": "bytes",
          "name": "_data",
          "type": "bytes"
        }
      ],
      "name": "safeTransferFrom",
      "outputs": [],
      "stateMutability": "nonpayable",
      "type": "function"
    },
    {
      "inputs": [
        {
          "internalType": "uint256",
          "name": "tokenId",
          "type": "uint256"
        }
      ],
      "name": "sellCoupon",
      "outputs": [],
      "stateMutability": "payable",
      "type": "function"
    },
    {
      "inputs": [
        {
          "internalType": "address",
          "name": "operator",
          "type": "address"
        },
        {
          "internalType": "bool",
          "name": "approved",
          "type": "bool"
        }
      ],
      "name": "setApprovalForAll",
      "outputs": [],
      "stateMutability": "nonpayable",
      "type": "function"
    },
    {
      "inputs": [
        {
          "internalType": "bytes4",
          "name": "interfaceId",
          "type": "bytes4"
        }
      ],
      "name": "supportsInterface",
      "outputs": [
        {
          "internalType": "bool",
          "name": "",
          "type": "bool"
        }
      ],
      "stateMutability": "view",
      "type": "function"
    },
    {
      "inputs": [],
      "name": "symbol",
      "outputs": [
        {
          "internalType": "string",
          "name": "",
          "type": "string"
        }
      ],
      "stateMutability": "view",
      "type": "function"
    },
    {
      "inputs": [
        {
          "internalType": "uint256",
          "name": "index",
          "type": "uint256"
        }
      ],
      "name": "tokenByIndex",
      "outputs": [
        {
          "internalType": "uint256",
          "name": "",
          "type": "uint256"
        }
      ],
      "stateMutability": "view",
      "type": "function"
    },
    {
      "inputs": [
        {
          "internalType": "address",
          "name": "owner",
          "type": "address"
        },
        {
          "internalType": "uint256",
          "name": "index",
          "type": "uint256"
        }
      ],
      "name": "tokenOfOwnerByIndex",
      "outputs": [
        {
          "internalType": "uint256",
          "name": "",
          "type": "uint256"
        }
      ],
      "stateMutability": "view",
      "type": "function"
    },
    {
      "inputs": [
        {
          "internalType": "uint256",
          "name": "tokenId",
          "type": "uint256"
        }
      ],
      "name": "tokenURI",
      "outputs": [
        {
          "internalType": "string",
          "name": "",
          "type": "string"
        }
      ],
      "stateMutability": "view",
      "type": "function"
    },
    {
      "inputs": [],
      "name": "totalSupply",
      "outputs": [
        {
          "internalType": "uint256",
          "name": "",
          "type": "uint256"
        }
      ],
      "stateMutability": "view",
      "type": "function"
    },
    {
      "inputs": [
        {
          "internalType": "address",
          "name": "from",
          "type": "address"
        },
        {
          "internalType": "address",
          "name": "to",
          "type": "address"
        },
        {
          "internalType": "uint256",
          "name": "tokenId",
          "type": "uint256"
        }
      ],
      "name": "transferFrom",
      "outputs": [],
      "stateMutability": "nonpayable",
      "type": "function"
    },
    {
      "inputs": [
        {
          "internalType": "address",
          "name": "newOwner",
          "type": "address"
        }
      ],
      "name": "transferOwnership",
      "outputs": [],
      "stateMutability": "nonpayable",
      "type": "function"
    }
  ],
  "bytecode": "0x60806040526000600d553480156200001657600080fd5b506040518060400160405280600881526020017f4d522042494747530000000000000000000000000000000000000000000000008152506040518060400160405280600581526020017f424947475300000000000000000000000000000000000000000000000000000081525081600090805190602001906200009b929190620001ab565b508060019080519060200190620000b4929190620001ab565b505050620000d7620000cb620000dd60201b60201c565b620000e560201b60201c565b620002c0565b600033905090565b6000600b60009054906101000a900473ffffffffffffffffffffffffffffffffffffffff16905081600b60006101000a81548173ffffffffffffffffffffffffffffffffffffffff021916908373ffffffffffffffffffffffffffffffffffffffff1602179055508173ffffffffffffffffffffffffffffffffffffffff168173ffffffffffffffffffffffffffffffffffffffff167f8be0079c531659141344cd1fd0a4f28419497f9722a3daafe3b4186f6b6457e060405160405180910390a35050565b828054620001b9906200025b565b90600052602060002090601f016020900481019282620001dd576000855562000229565b82601f10620001f857805160ff191683800117855562000229565b8280016001018555821562000229579182015b82811115620002285782518255916020019190600101906200020b565b5b5090506200023891906200023c565b5090565b5b80821115620002575760008160009055506001016200023d565b5090565b600060028204905060018216806200027457607f821691505b602082108114156200028b576200028a62000291565b5b50919050565b7f4e487b7100000000000000000000000000000000000000000000000000000000600052602260045260246000fd5b6144c080620002d06000396000f3fe6080604052600436106101665760003560e01c806370a08231116100d1578063a0e67e2b1161008a578063b88d4fde11610064578063b88d4fde1461053b578063c87b56dd14610564578063e985e9c5146105a1578063f2fde38b146105de57610166565b8063a0e67e2b146104aa578063a22cb465146104d5578063a26cd690146104fe57610166565b806370a08231146103c8578063715018a614610405578063769eadae1461041c57806386d3ebc7146104385780638da5cb5b1461045457806395d89b411461047f57610166565b806323b872dd1161012357806323b872dd1461028f5780632f745c59146102b857806342842e0e146102f55780634f6ccce71461031e5780635693a2d21461035b5780636352211e1461038b57610166565b806301ffc9a71461016b57806306fdde03146101a8578063081812fc146101d3578063095ea7b314610210578063136f48831461023957806318160ddd14610264575b600080fd5b34801561017757600080fd5b50610192600480360381019061018d9190612fc2565b610607565b60405161019f9190613671565b60405180910390f35b3480156101b457600080fd5b506101bd610619565b6040516101ca919061368c565b60405180910390f35b3480156101df57600080fd5b506101fa60048036038101906101f591906130bf565b6106ab565b604051610207919061360a565b60405180910390f35b34801561021c57600080fd5b5061023760048036038101906102329190612f86565b610730565b005b34801561024557600080fd5b5061024e610848565b60405161025b91906139b0565b60405180910390f35b34801561027057600080fd5b50610279610859565b60405161028691906139b0565b60405180910390f35b34801561029b57600080fd5b506102b660048036038101906102b19190612e80565b610866565b005b3480156102c457600080fd5b506102df60048036038101906102da9190612f86565b6108c6565b6040516102ec91906139b0565b60405180910390f35b34801561030157600080fd5b5061031c60048036038101906103179190612e80565b61096b565b005b34801561032a57600080fd5b50610345600480360381019061034091906130bf565b61098b565b60405161035291906139b0565b60405180910390f35b61037560048036038101906103709190613014565b610a22565b60405161038291906139b0565b60405180910390f35b34801561039757600080fd5b506103b260048036038101906103ad91906130bf565b610a67565b6040516103bf919061360a565b60405180910390f35b3480156103d457600080fd5b506103ef60048036038101906103ea9190612e1b565b610b19565b6040516103fc91906139b0565b60405180910390f35b34801561041157600080fd5b5061041a610bd1565b005b610436600480360381019061043191906130bf565b610c59565b005b610452600480360381019061044d91906130bf565b610de4565b005b34801561046057600080fd5b50610469610fae565b604051610476919061360a565b60405180910390f35b34801561048b57600080fd5b50610494610fd8565b6040516104a1919061368c565b60405180910390f35b3480156104b657600080fd5b506104bf61106a565b6040516104cc91906139b0565b60405180910390f35b3480156104e157600080fd5b506104fc60048036038101906104f79190612f4a565b611074565b005b34801561050a57600080fd5b50610525600480360381019061052091906130bf565b61108a565b604051610532919061398e565b60405180910390f35b34801561054757600080fd5b50610562600480360381019061055d9190612ecf565b6112b6565b005b34801561057057600080fd5b5061058b600480360381019061058691906130bf565b611318565b604051610598919061368c565b60405180910390f35b3480156105ad57600080fd5b506105c860048036038101906105c39190612e44565b61132a565b6040516105d59190613671565b60405180910390f35b3480156105ea57600080fd5b5061060560048036038101906106009190612e1b565b6113be565b005b6000610612826114b6565b9050919050565b60606000805461062890613c29565b80601f016020809104026020016040519081016040528092919081815260200182805461065490613c29565b80156106a15780601f10610676576101008083540402835291602001916106a1565b820191906000526020600020905b81548152906001019060200180831161068457829003601f168201915b5050505050905090565b60006106b682611530565b6106f5576040517f08c379a00000000000000000000000000000000000000000000000000000000081526004016106ec906138ae565b60405180910390fd5b6004600083815260200190815260200160002060009054906101000a900473ffffffffffffffffffffffffffffffffffffffff169050919050565b600061073b82610a67565b90508073ffffffffffffffffffffffffffffffffffffffff168373ffffffffffffffffffffffffffffffffffffffff1614156107ac576040517f08c379a00000000000000000000000000000000000000000000000000000000081526004016107a39061390e565b60405180910390fd5b8073ffffffffffffffffffffffffffffffffffffffff166107cb61159c565b73ffffffffffffffffffffffffffffffffffffffff1614806107fa57506107f9816107f461159c565b61132a565b5b610839576040517f08c379a0000000000000000000000000000000000000000000000000000000008152600401610830906137ae565b60405180910390fd5b61084383836115a4565b505050565b6000610854600c61165d565b905090565b6000600880549050905090565b61087761087161159c565b8261166b565b6108b6576040517f08c379a00000000000000000000000000000000000000000000000000000000081526004016108ad9061392e565b60405180910390fd5b6108c1838383611749565b505050565b60006108d183610b19565b8210610912576040517f08c379a0000000000000000000000000000000000000000000000000000000008152600401610909906136ae565b60405180910390fd5b600660008473ffffffffffffffffffffffffffffffffffffffff1673ffffffffffffffffffffffffffffffffffffffff168152602001908152602001600020600083815260200190815260200160002054905092915050565b610986838383604051806020016040528060008152506112b6565b505050565b6000610995610859565b82106109d6576040517f08c379a00000000000000000000000000000000000000000000000000000000081526004016109cd9061394e565b60405180910390fd5b60088281548110610a10577f4e487b7100000000000000000000000000000000000000000000000000000000600052603260045260246000fd5b90600052602060002001549050919050565b600080610a2f600c61165d565b9050610a3b600c6119b0565b610a4533826119c6565b610a4f8187611ba0565b610a5b81868686611c14565b80915050949350505050565b6000806002600084815260200190815260200160002060009054906101000a900473ffffffffffffffffffffffffffffffffffffffff169050600073ffffffffffffffffffffffffffffffffffffffff168173ffffffffffffffffffffffffffffffffffffffff161415610b10576040517f08c379a0000000000000000000000000000000000000000000000000000000008152600401610b07906137ee565b60405180910390fd5b80915050919050565b60008073ffffffffffffffffffffffffffffffffffffffff168273ffffffffffffffffffffffffffffffffffffffff161415610b8a576040517f08c379a0000000000000000000000000000000000000000000000000000000008152600401610b81906137ce565b60405180910390fd5b600360008373ffffffffffffffffffffffffffffffffffffffff1673ffffffffffffffffffffffffffffffffffffffff168152602001908152602001600020549050919050565b610bd961159c565b73ffffffffffffffffffffffffffffffffffffffff16610bf7610fae565b73ffffffffffffffffffffffffffffffffffffffff1614610c4d576040517f08c379a0000000000000000000000000000000000000000000000000000000008152600401610c44906138ce565b60405180910390fd5b610c576000611ddc565b565b3373ffffffffffffffffffffffffffffffffffffffff16600e600083815260200190815260200160002060040160009054906101000a900473ffffffffffffffffffffffffffffffffffffffff1673ffffffffffffffffffffffffffffffffffffffff1614610cfd576040517f08c379a0000000000000000000000000000000000000000000000000000000008152600401610cf49061388e565b60405180910390fd5b6000600e600083815260200190815260200160002060060160006101000a81548160ff02191690831515021790555033600e600083815260200190815260200160002060030160006101000a81548173ffffffffffffffffffffffffffffffffffffffff021916908373ffffffffffffffffffffffffffffffffffffffff16021790555030600e600083815260200190815260200160002060040160006101000a81548173ffffffffffffffffffffffffffffffffffffffff021916908373ffffffffffffffffffffffffffffffffffffffff160217905550610de1333083611749565b50565b6000600e60008381526020019081526020016000206005015490506000600e600084815260200190815260200160002060030160009054906101000a900473ffffffffffffffffffffffffffffffffffffffff16905081341015610e7d576040517f08c379a0000000000000000000000000000000000000000000000000000000008152600401610e749061382e565b60405180910390fd5b33600e600085815260200190815260200160002060040160006101000a81548173ffffffffffffffffffffffffffffffffffffffff021916908373ffffffffffffffffffffffffffffffffffffffff1602179055506001600e600085815260200190815260200160002060060160006101000a81548160ff0219169083151502179055506000600e600085815260200190815260200160002060030160006101000a81548173ffffffffffffffffffffffffffffffffffffffff021916908373ffffffffffffffffffffffffffffffffffffffff160217905550610f62303385611749565b8073ffffffffffffffffffffffffffffffffffffffff166108fc349081150290604051600060405180830381858888f19350505050158015610fa8573d6000803e3d6000fd5b50505050565b6000600b60009054906101000a900473ffffffffffffffffffffffffffffffffffffffff16905090565b606060018054610fe790613c29565b80601f016020809104026020016040519081016040528092919081815260200182805461101390613c29565b80156110605780601f1061103557610100808354040283529160200191611060565b820191906000526020600020905b81548152906001019060200180831161104357829003601f168201915b5050505050905090565b6000600d54905090565b61108661107f61159c565b8383611ea2565b5050565b611092612bd4565b600e60008381526020019081526020016000206040518060e0016040529081600082015481526020016001820180546110ca90613c29565b80601f01602080910402602001604051908101604052809291908181526020018280546110f690613c29565b80156111435780601f1061111857610100808354040283529160200191611143565b820191906000526020600020905b81548152906001019060200180831161112657829003601f168201915b5050505050815260200160028201805461115c90613c29565b80601f016020809104026020016040519081016040528092919081815260200182805461118890613c29565b80156111d55780601f106111aa576101008083540402835291602001916111d5565b820191906000526020600020905b8154815290600101906020018083116111b857829003601f168201915b505050505081526020016003820160009054906101000a900473ffffffffffffffffffffffffffffffffffffffff1673ffffffffffffffffffffffffffffffffffffffff1673ffffffffffffffffffffffffffffffffffffffff1681526020016004820160009054906101000a900473ffffffffffffffffffffffffffffffffffffffff1673ffffffffffffffffffffffffffffffffffffffff1673ffffffffffffffffffffffffffffffffffffffff168152602001600582015481526020016006820160009054906101000a900460ff1615151515815250509050919050565b6112c76112c161159c565b8361166b565b611306576040517f08c379a00000000000000000000000000000000000000000000000000000000081526004016112fd9061392e565b60405180910390fd5b6113128484848461200f565b50505050565b60606113238261206b565b9050919050565b6000600560008473ffffffffffffffffffffffffffffffffffffffff1673ffffffffffffffffffffffffffffffffffffffff16815260200190815260200160002060008373ffffffffffffffffffffffffffffffffffffffff1673ffffffffffffffffffffffffffffffffffffffff16815260200190815260200160002060009054906101000a900460ff16905092915050565b6113c661159c565b73ffffffffffffffffffffffffffffffffffffffff166113e4610fae565b73ffffffffffffffffffffffffffffffffffffffff161461143a576040517f08c379a0000000000000000000000000000000000000000000000000000000008152600401611431906138ce565b60405180910390fd5b600073ffffffffffffffffffffffffffffffffffffffff168173ffffffffffffffffffffffffffffffffffffffff1614156114aa576040517f08c379a00000000000000000000000000000000000000000000000000000000081526004016114a1906136ee565b60405180910390fd5b6114b381611ddc565b50565b60007f780e9d63000000000000000000000000000000000000000000000000000000007bffffffffffffffffffffffffffffffffffffffffffffffffffffffff1916827bffffffffffffffffffffffffffffffffffffffffffffffffffffffff191614806115295750611528826121bd565b5b9050919050565b60008073ffffffffffffffffffffffffffffffffffffffff166002600084815260200190815260200160002060009054906101000a900473ffffffffffffffffffffffffffffffffffffffff1673ffffffffffffffffffffffffffffffffffffffff1614159050919050565b600033905090565b816004600083815260200190815260200160002060006101000a81548173ffffffffffffffffffffffffffffffffffffffff021916908373ffffffffffffffffffffffffffffffffffffffff160217905550808273ffffffffffffffffffffffffffffffffffffffff1661161783610a67565b73ffffffffffffffffffffffffffffffffffffffff167f8c5be1e5ebec7d5bd14f71427d1e84f3dd0314c0f7b2291e5b200ac8c7c3b92560405160405180910390a45050565b600081600001549050919050565b600061167682611530565b6116b5576040517f08c379a00000000000000000000000000000000000000000000000000000000081526004016116ac9061378e565b60405180910390fd5b60006116c083610a67565b90508073ffffffffffffffffffffffffffffffffffffffff168473ffffffffffffffffffffffffffffffffffffffff1614806117025750611701818561132a565b5b8061174057508373ffffffffffffffffffffffffffffffffffffffff16611728846106ab565b73ffffffffffffffffffffffffffffffffffffffff16145b91505092915050565b8273ffffffffffffffffffffffffffffffffffffffff1661176982610a67565b73ffffffffffffffffffffffffffffffffffffffff16146117bf576040517f08c379a00000000000000000000000000000000000000000000000000000000081526004016117b69061370e565b60405180910390fd5b600073ffffffffffffffffffffffffffffffffffffffff168273ffffffffffffffffffffffffffffffffffffffff16141561182f576040517f08c379a00000000000000000000000000000000000000000000000000000000081526004016118269061374e565b60405180910390fd5b61183a83838361229f565b6118456000826115a4565b6001600360008573ffffffffffffffffffffffffffffffffffffffff1673ffffffffffffffffffffffffffffffffffffffff16815260200190815260200160002060008282546118959190613b2d565b925050819055506001600360008473ffffffffffffffffffffffffffffffffffffffff1673ffffffffffffffffffffffffffffffffffffffff16815260200190815260200160002060008282546118ec9190613aa6565b92505081905550816002600083815260200190815260200160002060006101000a81548173ffffffffffffffffffffffffffffffffffffffff021916908373ffffffffffffffffffffffffffffffffffffffff160217905550808273ffffffffffffffffffffffffffffffffffffffff168473ffffffffffffffffffffffffffffffffffffffff167fddf252ad1be2c89b69c2b068fc378daa952ba7f163c4a11628f55a4df523b3ef60405160405180910390a46119ab8383836122af565b505050565b6001816000016000828254019250508190555050565b600073ffffffffffffffffffffffffffffffffffffffff168273ffffffffffffffffffffffffffffffffffffffff161415611a36576040517f08c379a0000000000000000000000000000000000000000000000000000000008152600401611a2d9061384e565b60405180910390fd5b611a3f81611530565b15611a7f576040517f08c379a0000000000000000000000000000000000000000000000000000000008152600401611a769061372e565b60405180910390fd5b611a8b6000838361229f565b6001600360008473ffffffffffffffffffffffffffffffffffffffff1673ffffffffffffffffffffffffffffffffffffffff1681526020019081526020016000206000828254611adb9190613aa6565b92505081905550816002600083815260200190815260200160002060006101000a81548173ffffffffffffffffffffffffffffffffffffffff021916908373ffffffffffffffffffffffffffffffffffffffff160217905550808273ffffffffffffffffffffffffffffffffffffffff16600073ffffffffffffffffffffffffffffffffffffffff167fddf252ad1be2c89b69c2b068fc378daa952ba7f163c4a11628f55a4df523b3ef60405160405180910390a4611b9c600083836122af565b5050565b611ba982611530565b611be8576040517f08c379a0000000000000000000000000000000000000000000000000000000008152600401611bdf9061380e565b60405180910390fd5b80600a60008481526020019081526020016000209080519060200190611c0f929190612c3f565b505050565b60008111611c57576040517f08c379a0000000000000000000000000000000000000000000000000000000008152600401611c4e9061396e565b60405180910390fd5b6040518060e001604052808581526020018481526020018381526020013373ffffffffffffffffffffffffffffffffffffffff1681526020013073ffffffffffffffffffffffffffffffffffffffff16815260200182815260200160001515815250600e6000868152602001908152602001600020600082015181600001556020820151816001019080519060200190611cf2929190612c3f565b506040820151816002019080519060200190611d0f929190612c3f565b5060608201518160030160006101000a81548173ffffffffffffffffffffffffffffffffffffffff021916908373ffffffffffffffffffffffffffffffffffffffff16021790555060808201518160040160006101000a81548173ffffffffffffffffffffffffffffffffffffffff021916908373ffffffffffffffffffffffffffffffffffffffff16021790555060a0820151816005015560c08201518160060160006101000a81548160ff021916908315150217905550905050611dd6333086611749565b50505050565b6000600b60009054906101000a900473ffffffffffffffffffffffffffffffffffffffff16905081600b60006101000a81548173ffffffffffffffffffffffffffffffffffffffff021916908373ffffffffffffffffffffffffffffffffffffffff1602179055508173ffffffffffffffffffffffffffffffffffffffff168173ffffffffffffffffffffffffffffffffffffffff167f8be0079c531659141344cd1fd0a4f28419497f9722a3daafe3b4186f6b6457e060405160405180910390a35050565b8173ffffffffffffffffffffffffffffffffffffffff168373ffffffffffffffffffffffffffffffffffffffff161415611f11576040517f08c379a0000000000000000000000000000000000000000000000000000000008152600401611f089061376e565b60405180910390fd5b80600560008573ffffffffffffffffffffffffffffffffffffffff1673ffffffffffffffffffffffffffffffffffffffff16815260200190815260200160002060008473ffffffffffffffffffffffffffffffffffffffff1673ffffffffffffffffffffffffffffffffffffffff16815260200190815260200160002060006101000a81548160ff0219169083151502179055508173ffffffffffffffffffffffffffffffffffffffff168373ffffffffffffffffffffffffffffffffffffffff167f17307eab39ab6107e8899845ad3d59bd9653f200f220920489ca2b5937696c31836040516120029190613671565b60405180910390a3505050565b61201a848484611749565b612026848484846122b4565b612065576040517f08c379a000000000000000000000000000000000000000000000000000000000815260040161205c906136ce565b60405180910390fd5b50505050565b606061207682611530565b6120b5576040517f08c379a00000000000000000000000000000000000000000000000000000000081526004016120ac9061386e565b60405180910390fd5b6000600a600084815260200190815260200160002080546120d590613c29565b80601f016020809104026020016040519081016040528092919081815260200182805461210190613c29565b801561214e5780601f106121235761010080835404028352916020019161214e565b820191906000526020600020905b81548152906001019060200180831161213157829003601f168201915b50505050509050600061215f61244b565b90506000815114156121755781925050506121b8565b6000825111156121aa5780826040516020016121929291906135e6565b604051602081830303815290604052925050506121b8565b6121b384612462565b925050505b919050565b60007f80ac58cd000000000000000000000000000000000000000000000000000000007bffffffffffffffffffffffffffffffffffffffffffffffffffffffff1916827bffffffffffffffffffffffffffffffffffffffffffffffffffffffff1916148061228857507f5b5e139f000000000000000000000000000000000000000000000000000000007bffffffffffffffffffffffffffffffffffffffffffffffffffffffff1916827bffffffffffffffffffffffffffffffffffffffffffffffffffffffff1916145b80612298575061229782612509565b5b9050919050565b6122aa838383612573565b505050565b505050565b60006122d58473ffffffffffffffffffffffffffffffffffffffff16612687565b1561243e578373ffffffffffffffffffffffffffffffffffffffff1663150b7a026122fe61159c565b8786866040518563ffffffff1660e01b81526004016123209493929190613625565b602060405180830381600087803b15801561233a57600080fd5b505af192505050801561236b57506040513d601f19601f820116820180604052508101906123689190612feb565b60015b6123ee573d806000811461239b576040519150601f19603f3d011682016040523d82523d6000602084013e6123a0565b606091505b506000815114156123e6576040517f08c379a00000000000000000000000000000000000000000000000000000000081526004016123dd906136ce565b60405180910390fd5b805181602001fd5b63150b7a0260e01b7bffffffffffffffffffffffffffffffffffffffffffffffffffffffff1916817bffffffffffffffffffffffffffffffffffffffffffffffffffffffff191614915050612443565b600190505b949350505050565b606060405180602001604052806000815250905090565b606061246d82611530565b6124ac576040517f08c379a00000000000000000000000000000000000000000000000000000000081526004016124a3906138ee565b60405180910390fd5b60006124b661244b565b905060008151116124d65760405180602001604052806000815250612501565b806124e0846126aa565b6040516020016124f19291906135e6565b6040516020818303038152906040525b915050919050565b60007f01ffc9a7000000000000000000000000000000000000000000000000000000007bffffffffffffffffffffffffffffffffffffffffffffffffffffffff1916827bffffffffffffffffffffffffffffffffffffffffffffffffffffffff1916149050919050565b61257e838383612857565b600073ffffffffffffffffffffffffffffffffffffffff168373ffffffffffffffffffffffffffffffffffffffff1614156125c1576125bc8161285c565b612600565b8173ffffffffffffffffffffffffffffffffffffffff168373ffffffffffffffffffffffffffffffffffffffff16146125ff576125fe83826128a5565b5b5b600073ffffffffffffffffffffffffffffffffffffffff168273ffffffffffffffffffffffffffffffffffffffff1614156126435761263e81612a12565b612682565b8273ffffffffffffffffffffffffffffffffffffffff168273ffffffffffffffffffffffffffffffffffffffff1614612681576126808282612b55565b5b5b505050565b6000808273ffffffffffffffffffffffffffffffffffffffff163b119050919050565b606060008214156126f2576040518060400160405280600181526020017f30000000000000000000000000000000000000000000000000000000000000008152509050612852565b600082905060005b6000821461272457808061270d90613c8c565b915050600a8261271d9190613afc565b91506126fa565b60008167ffffffffffffffff811115612766577f4e487b7100000000000000000000000000000000000000000000000000000000600052604160045260246000fd5b6040519080825280601f01601f1916602001820160405280156127985781602001600182028036833780820191505090505b5090505b6000851461284b576001826127b19190613b2d565b9150600a856127c09190613cd5565b60306127cc9190613aa6565b60f81b818381518110612808577f4e487b7100000000000000000000000000000000000000000000000000000000600052603260045260246000fd5b60200101907effffffffffffffffffffffffffffffffffffffffffffffffffffffffffffff1916908160001a905350600a856128449190613afc565b945061279c565b8093505050505b919050565b505050565b6008805490506009600083815260200190815260200160002081905550600881908060018154018082558091505060019003906000526020600020016000909190919091505550565b600060016128b284610b19565b6128bc9190613b2d565b90506000600760008481526020019081526020016000205490508181146129a1576000600660008673ffffffffffffffffffffffffffffffffffffffff1673ffffffffffffffffffffffffffffffffffffffff168152602001908152602001600020600084815260200190815260200160002054905080600660008773ffffffffffffffffffffffffffffffffffffffff1673ffffffffffffffffffffffffffffffffffffffff168152602001908152602001600020600084815260200190815260200160002081905550816007600083815260200190815260200160002081905550505b6007600084815260200190815260200160002060009055600660008573ffffffffffffffffffffffffffffffffffffffff1673ffffffffffffffffffffffffffffffffffffffff16815260200190815260200160002060008381526020019081526020016000206000905550505050565b60006001600880549050612a269190613b2d565b9050600060096000848152602001908152602001600020549050600060088381548110612a7c577f4e487b7100000000000000000000000000000000000000000000000000000000600052603260045260246000fd5b906000526020600020015490508060088381548110612ac4577f4e487b7100000000000000000000000000000000000000000000000000000000600052603260045260246000fd5b906000526020600020018190555081600960008381526020019081526020016000208190555060096000858152602001908152602001600020600090556008805480612b39577f4e487b7100000000000000000000000000000000000000000000000000000000600052603160045260246000fd5b6001900381819060005260206000200160009055905550505050565b6000612b6083610b19565b905081600660008573ffffffffffffffffffffffffffffffffffffffff1673ffffffffffffffffffffffffffffffffffffffff168152602001908152602001600020600083815260200190815260200160002081905550806007600084815260200190815260200160002081905550505050565b6040518060e00160405280600081526020016060815260200160608152602001600073ffffffffffffffffffffffffffffffffffffffff168152602001600073ffffffffffffffffffffffffffffffffffffffff168152602001600081526020016000151581525090565b828054612c4b90613c29565b90600052602060002090601f016020900481019282612c6d5760008555612cb4565b82601f10612c8657805160ff1916838001178555612cb4565b82800160010185558215612cb4579182015b82811115612cb3578251825591602001919060010190612c98565b5b509050612cc19190612cc5565b5090565b5b80821115612cde576000816000905550600101612cc6565b5090565b6000612cf5612cf0846139f0565b6139cb565b905082815260208101848484011115612d0d57600080fd5b612d18848285613be7565b509392505050565b6000612d33612d2e84613a21565b6139cb565b905082815260208101848484011115612d4b57600080fd5b612d56848285613be7565b509392505050565b600081359050612d6d8161442e565b92915050565b600081359050612d8281614445565b92915050565b600081359050612d978161445c565b92915050565b600081519050612dac8161445c565b92915050565b600082601f830112612dc357600080fd5b8135612dd3848260208601612ce2565b91505092915050565b600082601f830112612ded57600080fd5b8135612dfd848260208601612d20565b91505092915050565b600081359050612e1581614473565b92915050565b600060208284031215612e2d57600080fd5b6000612e3b84828501612d5e565b91505092915050565b60008060408385031215612e5757600080fd5b6000612e6585828601612d5e565b9250506020612e7685828601612d5e565b9150509250929050565b600080600060608486031215612e9557600080fd5b6000612ea386828701612d5e565b9350506020612eb486828701612d5e565b9250506040612ec586828701612e06565b9150509250925092565b60008060008060808587031215612ee557600080fd5b6000612ef387828801612d5e565b9450506020612f0487828801612d5e565b9350506040612f1587828801612e06565b925050606085013567ffffffffffffffff811115612f3257600080fd5b612f3e87828801612db2565b91505092959194509250565b60008060408385031215612f5d57600080fd5b6000612f6b85828601612d5e565b9250506020612f7c85828601612d73565b9150509250929050565b60008060408385031215612f9957600080fd5b6000612fa785828601612d5e565b9250506020612fb885828601612e06565b9150509250929050565b600060208284031215612fd457600080fd5b6000612fe284828501612d88565b91505092915050565b600060208284031215612ffd57600080fd5b600061300b84828501612d9d565b91505092915050565b6000806000806080858703121561302a57600080fd5b600085013567ffffffffffffffff81111561304457600080fd5b61305087828801612ddc565b945050602085013567ffffffffffffffff81111561306d57600080fd5b61307987828801612ddc565b935050604085013567ffffffffffffffff81111561309657600080fd5b6130a287828801612ddc565b92505060606130b387828801612e06565b91505092959194509250565b6000602082840312156130d157600080fd5b60006130df84828501612e06565b91505092915050565b6130f181613b73565b82525050565b61310081613b61565b82525050565b61310f81613b85565b82525050565b61311e81613b85565b82525050565b600061312f82613a52565b6131398185613a68565b9350613149818560208601613bf6565b61315281613dc2565b840191505092915050565b600061316882613a5d565b6131728185613a79565b9350613182818560208601613bf6565b61318b81613dc2565b840191505092915050565b60006131a182613a5d565b6131ab8185613a8a565b93506131bb818560208601613bf6565b6131c481613dc2565b840191505092915050565b60006131da82613a5d565b6131e48185613a9b565b93506131f4818560208601613bf6565b80840191505092915050565b600061320d602b83613a8a565b915061321882613dd3565b604082019050919050565b6000613230603283613a8a565b915061323b82613e22565b604082019050919050565b6000613253602683613a8a565b915061325e82613e71565b604082019050919050565b6000613276602583613a8a565b915061328182613ec0565b604082019050919050565b6000613299601c83613a8a565b91506132a482613f0f565b602082019050919050565b60006132bc602483613a8a565b91506132c782613f38565b604082019050919050565b60006132df601983613a8a565b91506132ea82613f87565b602082019050919050565b6000613302602c83613a8a565b915061330d82613fb0565b604082019050919050565b6000613325603883613a8a565b915061333082613fff565b604082019050919050565b6000613348602a83613a8a565b91506133538261404e565b604082019050919050565b600061336b602983613a8a565b91506133768261409d565b604082019050919050565b600061338e602e83613a8a565b9150613399826140ec565b604082019050919050565b60006133b1604083613a8a565b91506133bc8261413b565b604082019050919050565b60006133d4602083613a8a565b91506133df8261418a565b602082019050919050565b60006133f7603183613a8a565b9150613402826141b3565b604082019050919050565b600061341a602a83613a8a565b915061342582614202565b604082019050919050565b600061343d602c83613a8a565b915061344882614251565b604082019050919050565b6000613460602083613a8a565b915061346b826142a0565b602082019050919050565b6000613483602f83613a8a565b915061348e826142c9565b604082019050919050565b60006134a6602183613a8a565b91506134b182614318565b604082019050919050565b60006134c9603183613a8a565b91506134d482614367565b604082019050919050565b60006134ec602c83613a8a565b91506134f7826143b6565b604082019050919050565b600061350f601c83613a8a565b915061351a82614405565b602082019050919050565b600060e08301600083015161353d60008601826135c8565b5060208301518482036020860152613555828261315d565b9150506040830151848203604086015261356f828261315d565b915050606083015161358460608601826130e8565b50608083015161359760808601826130e8565b5060a08301516135aa60a08601826135c8565b5060c08301516135bd60c0860182613106565b508091505092915050565b6135d181613bdd565b82525050565b6135e081613bdd565b82525050565b60006135f282856131cf565b91506135fe82846131cf565b91508190509392505050565b600060208201905061361f60008301846130f7565b92915050565b600060808201905061363a60008301876130f7565b61364760208301866130f7565b61365460408301856135d7565b81810360608301526136668184613124565b905095945050505050565b60006020820190506136866000830184613115565b92915050565b600060208201905081810360008301526136a68184613196565b905092915050565b600060208201905081810360008301526136c781613200565b9050919050565b600060208201905081810360008301526136e781613223565b9050919050565b6000602082019050818103600083015261370781613246565b9050919050565b6000602082019050818103600083015261372781613269565b9050919050565b600060208201905081810360008301526137478161328c565b9050919050565b60006020820190508181036000830152613767816132af565b9050919050565b60006020820190508181036000830152613787816132d2565b9050919050565b600060208201905081810360008301526137a7816132f5565b9050919050565b600060208201905081810360008301526137c781613318565b9050919050565b600060208201905081810360008301526137e78161333b565b9050919050565b600060208201905081810360008301526138078161335e565b9050919050565b6000602082019050818103600083015261382781613381565b9050919050565b60006020820190508181036000830152613847816133a4565b9050919050565b60006020820190508181036000830152613867816133c7565b9050919050565b60006020820190508181036000830152613887816133ea565b9050919050565b600060208201905081810360008301526138a78161340d565b9050919050565b600060208201905081810360008301526138c781613430565b9050919050565b600060208201905081810360008301526138e781613453565b9050919050565b6000602082019050818103600083015261390781613476565b9050919050565b6000602082019050818103600083015261392781613499565b9050919050565b60006020820190508181036000830152613947816134bc565b9050919050565b60006020820190508181036000830152613967816134df565b9050919050565b6000602082019050818103600083015261398781613502565b9050919050565b600060208201905081810360008301526139a88184613525565b905092915050565b60006020820190506139c560008301846135d7565b92915050565b60006139d56139e6565b90506139e18282613c5b565b919050565b6000604051905090565b600067ffffffffffffffff821115613a0b57613a0a613d93565b5b613a1482613dc2565b9050602081019050919050565b600067ffffffffffffffff821115613a3c57613a3b613d93565b5b613a4582613dc2565b9050602081019050919050565b600081519050919050565b600081519050919050565b600082825260208201905092915050565b600082825260208201905092915050565b600082825260208201905092915050565b600081905092915050565b6000613ab182613bdd565b9150613abc83613bdd565b9250827fffffffffffffffffffffffffffffffffffffffffffffffffffffffffffffffff03821115613af157613af0613d06565b5b828201905092915050565b6000613b0782613bdd565b9150613b1283613bdd565b925082613b2257613b21613d35565b5b828204905092915050565b6000613b3882613bdd565b9150613b4383613bdd565b925082821015613b5657613b55613d06565b5b828203905092915050565b6000613b6c82613bbd565b9050919050565b6000613b7e82613bbd565b9050919050565b60008115159050919050565b60007fffffffff0000000000000000000000000000000000000000000000000000000082169050919050565b600073ffffffffffffffffffffffffffffffffffffffff82169050919050565b6000819050919050565b82818337600083830152505050565b60005b83811015613c14578082015181840152602081019050613bf9565b83811115613c23576000848401525b50505050565b60006002820490506001821680613c4157607f821691505b60208210811415613c5557613c54613d64565b5b50919050565b613c6482613dc2565b810181811067ffffffffffffffff82111715613c8357613c82613d93565b5b80604052505050565b6000613c9782613bdd565b91507fffffffffffffffffffffffffffffffffffffffffffffffffffffffffffffffff821415613cca57613cc9613d06565b5b600182019050919050565b6000613ce082613bdd565b9150613ceb83613bdd565b925082613cfb57613cfa613d35565b5b828206905092915050565b7f4e487b7100000000000000000000000000000000000000000000000000000000600052601160045260246000fd5b7f4e487b7100000000000000000000000000000000000000000000000000000000600052601260045260246000fd5b7f4e487b7100000000000000000000000000000000000000000000000000000000600052602260045260246000fd5b7f4e487b7100000000000000000000000000000000000000000000000000000000600052604160045260246000fd5b6000601f19601f8301169050919050565b7f455243373231456e756d657261626c653a206f776e657220696e646578206f7560008201527f74206f6620626f756e6473000000000000000000000000000000000000000000602082015250565b7f4552433732313a207472616e7366657220746f206e6f6e20455243373231526560008201527f63656976657220696d706c656d656e7465720000000000000000000000000000602082015250565b7f4f776e61626c653a206e6577206f776e657220697320746865207a65726f206160008201527f6464726573730000000000000000000000000000000000000000000000000000602082015250565b7f4552433732313a207472616e736665722066726f6d20696e636f72726563742060008201527f6f776e6572000000000000000000000000000000000000000000000000000000602082015250565b7f4552433732313a20746f6b656e20616c7265616479206d696e74656400000000600082015250565b7f4552433732313a207472616e7366657220746f20746865207a65726f2061646460008201527f7265737300000000000000000000000000000000000000000000000000000000602082015250565b7f4552433732313a20617070726f766520746f2063616c6c657200000000000000600082015250565b7f4552433732313a206f70657261746f7220717565727920666f72206e6f6e657860008201527f697374656e7420746f6b656e0000000000000000000000000000000000000000602082015250565b7f4552433732313a20617070726f76652063616c6c6572206973206e6f74206f7760008201527f6e6572206e6f7220617070726f76656420666f7220616c6c0000000000000000602082015250565b7f4552433732313a2062616c616e636520717565727920666f7220746865207a6560008201527f726f206164647265737300000000000000000000000000000000000000000000602082015250565b7f4552433732313a206f776e657220717565727920666f72206e6f6e657869737460008201527f656e7420746f6b656e0000000000000000000000000000000000000000000000602082015250565b7f45524337323155524953746f726167653a2055524920736574206f66206e6f6e60008201527f6578697374656e7420746f6b656e000000000000000000000000000000000000602082015250565b7f506c65617365207375626d6974207468652061736b696e67207072696365206960008201527f6e206f7264657220746f20636f6d706c65746520746865207075726368617365602082015250565b7f4552433732313a206d696e7420746f20746865207a65726f2061646472657373600082015250565b7f45524337323155524953746f726167653a2055524920717565727920666f722060008201527f6e6f6e6578697374656e7420746f6b656e000000000000000000000000000000602082015250565b7f4f6e6c79206974656d206f776e65722063616e20706572666f726d207468697360008201527f206f7065726174696f6e00000000000000000000000000000000000000000000602082015250565b7f4552433732313a20617070726f76656420717565727920666f72206e6f6e657860008201527f697374656e7420746f6b656e0000000000000000000000000000000000000000602082015250565b7f4f776e61626c653a2063616c6c6572206973206e6f7420746865206f776e6572600082015250565b7f4552433732314d657461646174613a2055524920717565727920666f72206e6f60008201527f6e6578697374656e7420746f6b656e0000000000000000000000000000000000602082015250565b7f4552433732313a20617070726f76616c20746f2063757272656e74206f776e6560008201527f7200000000000000000000000000000000000000000000000000000000000000602082015250565b7f4552433732313a207472616e736665722063616c6c6572206973206e6f74206f60008201527f776e6572206e6f7220617070726f766564000000000000000000000000000000602082015250565b7f455243373231456e756d657261626c653a20676c6f62616c20696e646578206f60008201527f7574206f6620626f756e64730000000000000000000000000000000000000000602082015250565b7f5072696365206d757374206265206174206c6561737420312077656900000000600082015250565b61443781613b61565b811461444257600080fd5b50565b61444e81613b85565b811461445957600080fd5b50565b61446581613b91565b811461447057600080fd5b50565b61447c81613bdd565b811461448757600080fd5b5056fea26469706673582212205ed9d6312420a9ae775c1dfa728d2200105544ce77056c56c2001e8ce7fa1dd264736f6c63430008040033",
  "linkReferences": {},
  "deployedLinkReferences": {}
}